:100000000C9434000C943E000C943E000C943E0082
:100010000C943E000C943E000C9466000C943E0040
:100020000C943E000C943E000C943E000C943E0058
:100030000C943E000C943E000C943E000C943E0048
:100040000C943E000C943E000C943E000C943E0038
:100050000C943E000C9470000C943E000C943E00F6
:100060000C943E000C943E0011241FBECFEFD8E04C
:10007000DEBFCDBF0E9489000C9491000C9400005B
:10008000F894A895E0E6F0E08081886180838FE4B1
:10009000808378940895549A08953898409881E020
:1000A00080937E0080E480937C00EAE7F0E080E8C3
:1000B000808380818062808380818860808380816A
:1000C0008760808380818064808308951F920F926F
:1000D0000FB60F9211240F900FBE0F901F9018951E
:1000E0001F920F920FB60F9211248F939F938091BE
:1000F0007800909179008536910510F45C9A01C0E2
:100100005C98A8959F918F910F900FBE0F901F90B4
:1001100018950E944B000E944D000E944000789468
:06012000FFCFF894FFCFB1
:00000001FF
